{
  "contractName": "TestContract",
  "abi": [
    {
      "inputs": [],
      "stateMutability": "payable",
      "type": "constructor",
      "payable": true
    },
    {
      "inputs": [
        {
          "internalType": "string",
          "name": "name",
          "type": "string"
        },
        {
          "internalType": "string",
          "name": "message",
          "type": "string"
        }
      ],
      "name": "uploadTask",
      "outputs": [],
      "stateMutability": "payable",
      "type": "function",
      "payable": true
    },
    {
      "inputs": [
        {
          "internalType": "address",
          "name": "receiver",
          "type": "address"
        },
        {
          "internalType": "uint256",
          "name": "amount",
          "type": "uint256"
        }
      ],
      "name": "taskComplete",
      "outputs": [],
      "stateMutability": "payable",
      "type": "function",
      "payable": true
    },
    {
      "inputs": [],
      "name": "getTransact",
      "outputs": [
        {
          "components": [
            {
              "internalType": "string",
              "name": "name",
              "type": "string"
            },
            {
              "internalType": "string",
              "name": "message",
              "type": "string"
            },
            {
              "internalType": "address",
              "name": "from",
              "type": "address"
            }
          ],
          "internalType": "struct TestContract.demo[]",
          "name": "",
          "type": "tuple[]"
        }
      ],
      "stateMutability": "view",
      "type": "function",
      "constant": true
    },
    {
      "inputs": [
        {
          "internalType": "address",
          "name": "receiver",
          "type": "address"
        }
      ],
      "name": "getBalanceR",
      "outputs": [
        {
          "internalType": "uint256",
          "name": "",
          "type": "uint256"
        }
      ],
      "stateMutability": "view",
      "type": "function",
      "constant": true
    },
    {
      "inputs": [
        {
          "internalType": "address",
          "name": "sender",
          "type": "address"
        }
      ],
      "name": "getBalanceS",
      "outputs": [
        {
          "internalType": "uint256",
          "name": "",
          "type": "uint256"
        }
      ],
      "stateMutability": "view",
      "type": "function",
      "constant": true
    },
    {
      "inputs": [],
      "name": "getBalanceC",
      "outputs": [
        {
          "internalType": "uint256",
          "name": "",
          "type": "uint256"
        }
      ],
      "stateMutability": "view",
      "type": "function",
      "constant": true
    },
    {
      "inputs": [],
      "name": "getSelfAddress",
      "outputs": [
        {
          "internalType": "address",
          "name": "",
          "type": "address"
        }
      ],
      "stateMutability": "view",
      "type": "function",
      "constant": true
    }
  ],
  "bytecode": "0x6080604052600180546001600160a01b0319163317905561079a806100256000396000f3fe6080604052600436106100705760003560e01c8063bf38f4991161004e578063bf38f499146100d2578063dd01a9d5146100e5578063f556fcdb1461010d578063f585ff9d146100e557600080fd5b806308357f5c146100755780631162f672146100a05780639bd5505f146100bd575b600080fd5b34801561008157600080fd5b5061008a610128565b60405161009791906104f3565b60405180910390f35b3480156100ac57600080fd5b50475b604051908152602001610097565b6100d06100cb366004610630565b6102c1565b005b6100d06100e03660046106b0565b6103c1565b3480156100f157600080fd5b506100af6101003660046106da565b6001600160a01b03163190565b34801561011957600080fd5b50604051308152602001610097565b60606000805480602002602001604051908101604052809291908181526020016000905b828210156102b8578382906000526020600020906003020160405180606001604052908160008201805461017f906106fc565b80601f01602080910402602001604051908101604052809291908181526020018280546101ab906106fc565b80156101f85780601f106101cd576101008083540402835291602001916101f8565b820191906000526020600020905b8154815290600101906020018083116101db57829003601f168201915b50505050508152602001600182018054610211906106fc565b80601f016020809104026020016040519081016040528092919081815260200182805461023d906106fc565b801561028a5780601f1061025f5761010080835404028352916020019161028a565b820191906000526020600020905b81548152906001019060200180831161026d57829003601f168201915b5050509183525050600291909101546001600160a01b0316602091820152908252600192909201910161014c565b50505050905090565b600034116103155760405162461bcd60e51b815260206004820152601960248201527f506c65617365205061792067726561746572207468616e203000000000000000604482015260640160405180910390fd5b60408051606081018252838152602080820184905233928201929092526000805460018101825590805281518051929360039092027f290decd9548b62a8d60345a988386fc84ba6bc95484008f6362f93160ef3e563019261037a928492019061040d565b506020828101518051610393926001850192019061040d565b5060409190910151600290910180546001600160a01b0319166001600160a01b039092169190911790555050565b6001600160a01b0382166108fc6103e083670de0b6b3a7640000610737565b6040518115909202916000818181858888f19350505050158015610408573d6000803e3d6000fd5b505050565b828054610419906106fc565b90600052602060002090601f01602090048101928261043b5760008555610481565b82601f1061045457805160ff1916838001178555610481565b82800160010185558215610481579182015b82811115610481578251825591602001919060010190610466565b5061048d929150610491565b5090565b5b8082111561048d5760008155600101610492565b6000815180845260005b818110156104cc576020818501810151868301820152016104b0565b818111156104de576000602083870101525b50601f01601f19169290920160200192915050565b60006020808301818452808551808352604092508286019150828160051b87010184880160005b8381101561057f57603f19898403018552815160608151818652610540828701826104a6565b915050888201518582038a87015261055882826104a6565b928901516001600160a01b031695890195909552509487019492509086019060010161051a565b509098975050505050505050565b634e487b7160e01b600052604160045260246000fd5b600082601f8301126105b457600080fd5b813567ffffffffffffffff808211156105cf576105cf61058d565b604051601f8301601f19908116603f011681019082821181831017156105f7576105f761058d565b8160405283815286602085880101111561061057600080fd5b836020870160208301376000602085830101528094505050505092915050565b6000806040838503121561064357600080fd5b823567ffffffffffffffff8082111561065b57600080fd5b610667868387016105a3565b9350602085013591508082111561067d57600080fd5b5061068a858286016105a3565b9150509250929050565b80356001600160a01b03811681146106ab57600080fd5b919050565b600080604083850312156106c357600080fd5b6106cc83610694565b946020939093013593505050565b6000602082840312156106ec57600080fd5b6106f582610694565b9392505050565b600181811c9082168061071057607f821691505b6020821081141561073157634e487b7160e01b600052602260045260246000fd5b50919050565b600081600019048311821515161561075f57634e487b7160e01b600052601160045260246000fd5b50029056fea26469706673582212209bd29b685ef6ba74b8fa7016265036c167002c70d3e74cf1a7ce908e33de8acc64736f6c634300080b0033",
  "immutableReferences": {},
  "source": "pragma solidity ^0.8.11;\n \n\ncontract TestContract{\n    struct demo{\n        string name;\n        string message;\n        address from;\n    }\n\n    demo[] entry;\n    address payable owner;\n    constructor() payable {\n        owner=payable(msg.sender);\n    }\n\n    function uploadTask(string memory name,string memory message) public payable{\n        require(msg.value>0,\"Please Pay greater than 0\");\n        // address payable selfAdd=payabl\n        // address(this).transfer(msg.value);\n        entry.push(demo(name,message,msg.sender));\n    }\n\n    function taskComplete(address receiver,uint amount)public payable{\n\n       payable(receiver).transfer(amount*(1 ether)); \n\n    }\n    \n    function getTransact()public view returns(demo[] memory){\n        return entry;\n    }\n\n\n    function getBalanceR(address receiver) public view returns (uint) {\n        return receiver.balance;\n    }\n    function getBalanceS(address sender) public view returns(uint){\n        return sender.balance;\n    }\n    \n    function getBalanceC() public view returns(uint){\n        return address(this).balance;\n    }\n    \n    function getSelfAddress() public view returns(address){\n        return address(this);\n    }\n\n}",
  "sourcePath": "/Users/devanshslnk/Documents/UCI/Capstone/truffle-contract/contracts/TestContract.sol",
  "compiler": {
    "name": "solc",
    "version": "0.8.11+commit.d7f03943.Emscripten.clang"
  },
  "schemaVersion": "3.4.14",
  "updatedAt": "2023-06-06T20:26:27.543Z",
  "networkType": "ethereum",
  "devdoc": {
    "kind": "dev",
    "methods": {},
    "version": 1
  },
  "userdoc": {
    "kind": "user",
    "methods": {},
    "version": 1
  }
}